:020000002429B1
:0E000600213083120313FD00FD0B07280800B4
:100014000F3083120313FC004730FD00FD0B102842
:0A002400FC0B10280000000008008B
:06002E00000000000800C4
:1000340083160313B41B21288312861323288312E7
:1000440086178316341B2928831206132B28831240
:1000540006178316B41A31288312861233288312A2
:1000640086168316341A3928831206123B28831203
:10007400061683162818412883120615432883126E
:1000840006118615172086118316B4194C2883127D
:1000940086134E2883128617831634195428831224
:1000A40006135628831206178316B4185C28831285
:1000B40086125E28831286168316341864288312E7
:1000C4000612662883120616831628186C288312D3
:1000D40006156E28831206118615172086118316BD
:0C00E400281C76280A207728032008003A
:0E00F000831203136F088A006E088200080056
:1000FE008316031328103308B4001A20831628140D
:02010E000800E7
:100110008316031386110611061286120613861320
:1001200083128611061186130613861206120A2000
:100130000A200A20861606168615172086110A2020
:100140008615172086110A208615172086110A2089
:1001500006128615172086110A208615172086118B
:10016000861286178615172086110A208613061612
:1001700086151720861106128615172086110A206B
:1001800086151720861106168615172086110A2057
:10019000061286151720861186170617861606166C
:0E01A0008615172086110A20831628140800E1
:1001AE00E928803083160313AF00FC28C030AF005F
:1001BE00FC289430AF00FC28D430AF00FC288030EF
:1001CE00AF00FC28831603132F08013A0319D82811
:1001DE002F08023A0319DD282F08033A0319E028E5
:1001EE002F08043A0319E328E6283003F0002F08FD
:1001FE00F0077008AF007008B4001A20831628109C
:10020E00B20132083107840000080319162932089A
:10021E00310784000008B3007F20B20A0829281491
:02022E000800C6
:1002300078208A110A128000840AEE0A0319EF0A54
:08024000F003031D182908005A
:100248000C2383160313A901AA011030AB00003058
:10025800AC00AD01AE0107309C0006309F000F30A6
:10026800850083128501880187018316860187012D
:100278008030880083120815881788200130B40060
:100288001A200C308316B4001A2001308316AF00F0
:100298000130B0002030B100D7200230AF0001306B
:1002A800B0003130B100D7200230FB008630FC00AE
:1002B8009930FD00FD0B5E29FC0B5E29FB0B5E29C6
:1002C800A901AA0180302A06F00080307002031DBF
:1002D8006F290F302902031881291C30B4001A2015
:1002E800EA30FC00C330FD00FD0B7829FC0B7829AF
:1002F8008316A90A0319AA0A6629A901AA0183165D
:100308000130B4001A2001308316AF000130B0006C
:10031800A030B100D7200230AF000130B000673004
:10032800B100D7208030F00080302C067002031D09
:100338009F292B08003C0318A929831208150130AE
:100348008316AB02031CAC03AB298312081180305F
:10035800F000803083162E067002031DB5292D0883
:10036800003C0318CD29831208140230FB004530E5
:10037800FC00A930FD00FD0BBF29FC0BBF29FB0BBE
:10038800BF2900000000081001308316AD02031CCD
:10039800AE038312881BD52910308316AB000030BA
:1003A800AC00831205080F3A031D032A8814013094
:1003B8008316AF000830B0005E30B100D72002309D
:1003C800AF000730B0004A30B100D72001308312A7
:1003D8008700003083162A06031DF42900302906F9
:1003E800031DFE291030AB000030AC000330AD0017
:1003F8000030AE000130A9000030AA00A72A8312FD
:1004080005080E3A031D2B2A01308316AF00083069
:10041800B0004630B100D72000302A06031D162A46
:1004280001302906031D202A0230AF000730B00032
:100438004A30B100D720272A0230AF000730B00079
:100448004230B100D720033083128700A72A05085D
:100458000C3A031D522A01308316AF000830B00051
:100468004D30B100D72000302A06031D3D2A013047
:100478002906031D472A0230AF000730B0004A3072
:10048800B100D7204E2A0230AF000730B00042300A
:10049800B100D720073083128700A72A0508083A39
:1004A800031D792A01308316AF000830B000593097
:1004B800B100D72000302A06031D642A013029061E
:1004C800031D6E2A0230AF000730B0004A30B10079
:1004D800D720752A0230AF000730B0004230B10093
:1004E800D7200F3083128700A72A0508003A031D7A
:1004F800A52A01308316AF000830B0005430B1008F
:10050800D7200230AF000730B0004230B100D7200A
:1005180083128810003083162A06031D952A01309D
:100528002906031D9F2A1030AB000030AC000330B1
:10053800AD000030AE00A901AA011F308312870068
:10054800A72A0F308500C330FC00CD30FD00FD0B1D
:0A055800AB2AFC0BAB2A8329B02A62
:10061800203084004E3083120313F000B630EE0011
:100628000230EF001821A03084000830F0000430B8
:0A063800EE000330EF001821080067
:10056C00203443345334453433343334313420342D
:10057C00503472346F346A346534633474342034D8
:02058C00003439
:10058E002D342D342D342D342D342D342D342D3455
:10059E002D342D342D342D342D342D342D342D3445
:0205AE00003417
:0805B0004F3446344634003498
:0805B8004C346F347734003439
:0605C0004F344E340034FC
:0E05C6004D3465346434693475346D3400345A
:0A05D400463475346C346C34003486
:0A05DE00483469346734683400348F
:1005E800563465347234793420344C346F3477346B
:0205F8000034CD
:0E05FA004D346F3474346F3472342034003456
:100608004C346534763465346C343A3420340034F0
:02400E004A2F37
:00000001FF
